IP6 fe80::1000:ff:fe64:6423 > ff02::1: ICMP6, unknown icmp6 type (155), length 40
	0x0000:  9b02 fa60 0000 0000 0000 0000 0000 0000
	0x0010:  0000 0000 0000 0000 0300 0c00 0000 0000
	0x0020:  3020 010d b800 0100
